{
  "contractName": "FactoryContract",
  "abi": [
    {
      "inputs": [],
      "stateMutability": "nonpayable",
      "type": "constructor"
    },
    {
      "anonymous": false,
      "inputs": [
        {
          "indexed": true,
          "internalType": "address",
          "name": "owner",
          "type": "address"
        },
        {
          "indexed": true,
          "internalType": "address",
          "name": "approved",
          "type": "address"
        },
        {
          "indexed": true,
          "internalType": "uint256",
          "name": "tokenId",
          "type": "uint256"
        }
      ],
      "name": "Approval",
      "type": "event"
    },
    {
      "anonymous": false,
      "inputs": [
        {
          "indexed": true,
          "internalType": "address",
          "name": "owner",
          "type": "address"
        },
        {
          "indexed": true,
          "internalType": "address",
          "name": "operator",
          "type": "address"
        },
        {
          "indexed": false,
          "internalType": "bool",
          "name": "approved",
          "type": "bool"
        }
      ],
      "name": "ApprovalForAll",
      "type": "event"
    },
    {
      "anonymous": false,
      "inputs": [
        {
          "indexed": false,
          "internalType": "uint256",
          "name": "_fromTokenId",
          "type": "uint256"
        },
        {
          "indexed": false,
          "internalType": "uint256",
          "name": "_toTokenId",
          "type": "uint256"
        }
      ],
      "name": "BatchMetadataUpdate",
      "type": "event"
    },
    {
      "anonymous": false,
      "inputs": [
        {
          "indexed": false,
          "internalType": "uint256",
          "name": "_tokenId",
          "type": "uint256"
        }
      ],
      "name": "MetadataUpdate",
      "type": "event"
    },
    {
      "anonymous": false,
      "inputs": [
        {
          "indexed": true,
          "internalType": "address",
          "name": "previousOwner",
          "type": "address"
        },
        {
          "indexed": true,
          "internalType": "address",
          "name": "newOwner",
          "type": "address"
        }
      ],
      "name": "OwnershipTransferred",
      "type": "event"
    },
    {
      "anonymous": false,
      "inputs": [
        {
          "indexed": true,
          "internalType": "bytes32",
          "name": "role",
          "type": "bytes32"
        },
        {
          "indexed": true,
          "internalType": "bytes32",
          "name": "previousAdminRole",
          "type": "bytes32"
        },
        {
          "indexed": true,
          "internalType": "bytes32",
          "name": "newAdminRole",
          "type": "bytes32"
        }
      ],
      "name": "RoleAdminChanged",
      "type": "event"
    },
    {
      "anonymous": false,
      "inputs": [
        {
          "indexed": true,
          "internalType": "bytes32",
          "name": "role",
          "type": "bytes32"
        },
        {
          "indexed": true,
          "internalType": "address",
          "name": "account",
          "type": "address"
        },
        {
          "indexed": true,
          "internalType": "address",
          "name": "sender",
          "type": "address"
        }
      ],
      "name": "RoleGranted",
      "type": "event"
    },
    {
      "anonymous": false,
      "inputs": [
        {
          "indexed": true,
          "internalType": "bytes32",
          "name": "role",
          "type": "bytes32"
        },
        {
          "indexed": true,
          "internalType": "address",
          "name": "account",
          "type": "address"
        },
        {
          "indexed": true,
          "internalType": "address",
          "name": "sender",
          "type": "address"
        }
      ],
      "name": "RoleRevoked",
      "type": "event"
    },
    {
      "anonymous": false,
      "inputs": [
        {
          "indexed": true,
          "internalType": "address",
          "name": "from",
          "type": "address"
        },
        {
          "indexed": true,
          "internalType": "address",
          "name": "to",
          "type": "address"
        },
        {
          "indexed": true,
          "internalType": "uint256",
          "name": "tokenId",
          "type": "uint256"
        }
      ],
      "name": "Transfer",
      "type": "event"
    },
    {
      "inputs": [],
      "name": "DEFAULT_ADMIN_ROLE",
      "outputs": [
        {
          "internalType": "bytes32",
          "name": "",
          "type": "bytes32"
        }
      ],
      "stateMutability": "view",
      "type": "function",
      "constant": true
    },
    {
      "inputs": [],
      "name": "MINTER_ROLE",
      "outputs": [
        {
          "internalType": "bytes32",
          "name": "",
          "type": "bytes32"
        }
      ],
      "stateMutability": "view",
      "type": "function",
      "constant": true
    },
    {
      "inputs": [
        {
          "internalType": "address",
          "name": "to",
          "type": "address"
        },
        {
          "internalType": "uint256",
          "name": "tokenId",
          "type": "uint256"
        }
      ],
      "name": "approve",
      "outputs": [],
      "stateMutability": "nonpayable",
      "type": "function"
    },
    {
      "inputs": [
        {
          "internalType": "address",
          "name": "owner",
          "type": "address"
        }
      ],
      "name": "balanceOf",
      "outputs": [
        {
          "internalType": "uint256",
          "name": "",
          "type": "uint256"
        }
      ],
      "stateMutability": "view",
      "type": "function",
      "constant": true
    },
    {
      "inputs": [
        {
          "internalType": "uint256",
          "name": "tokenId",
          "type": "uint256"
        }
      ],
      "name": "getApproved",
      "outputs": [
        {
          "internalType": "address",
          "name": "",
          "type": "address"
        }
      ],
      "stateMutability": "view",
      "type": "function",
      "constant": true
    },
    {
      "inputs": [
        {
          "internalType": "bytes32",
          "name": "role",
          "type": "bytes32"
        }
      ],
      "name": "getRoleAdmin",
      "outputs": [
        {
          "internalType": "bytes32",
          "name": "",
          "type": "bytes32"
        }
      ],
      "stateMutability": "view",
      "type": "function",
      "constant": true
    },
    {
      "inputs": [
        {
          "internalType": "bytes32",
          "name": "role",
          "type": "bytes32"
        },
        {
          "internalType": "address",
          "name": "account",
          "type": "address"
        }
      ],
      "name": "grantRole",
      "outputs": [],
      "stateMutability": "nonpayable",
      "type": "function"
    },
    {
      "inputs": [
        {
          "internalType": "bytes32",
          "name": "role",
          "type": "bytes32"
        },
        {
          "internalType": "address",
          "name": "account",
          "type": "address"
        }
      ],
      "name": "hasRole",
      "outputs": [
        {
          "internalType": "bool",
          "name": "",
          "type": "bool"
        }
      ],
      "stateMutability": "view",
      "type": "function",
      "constant": true
    },
    {
      "inputs": [],
      "name": "implementation",
      "outputs": [
        {
          "internalType": "address",
          "name": "",
          "type": "address"
        }
      ],
      "stateMutability": "view",
      "type": "function",
      "constant": true
    },
    {
      "inputs": [
        {
          "internalType": "address",
          "name": "owner",
          "type": "address"
        },
        {
          "internalType": "address",
          "name": "operator",
          "type": "address"
        }
      ],
      "name": "isApprovedForAll",
      "outputs": [
        {
          "internalType": "bool",
          "name": "",
          "type": "bool"
        }
      ],
      "stateMutability": "view",
      "type": "function",
      "constant": true
    },
    {
      "inputs": [],
      "name": "name",
      "outputs": [
        {
          "internalType": "string",
          "name": "",
          "type": "string"
        }
      ],
      "stateMutability": "view",
      "type": "function",
      "constant": true
    },
    {
      "inputs": [],
      "name": "owner",
      "outputs": [
        {
          "internalType": "address",
          "name": "",
          "type": "address"
        }
      ],
      "stateMutability": "view",
      "type": "function",
      "constant": true
    },
    {
      "inputs": [
        {
          "internalType": "uint256",
          "name": "tokenId",
          "type": "uint256"
        }
      ],
      "name": "ownerOf",
      "outputs": [
        {
          "internalType": "address",
          "name": "",
          "type": "address"
        }
      ],
      "stateMutability": "view",
      "type": "function",
      "constant": true
    },
    {
      "inputs": [
        {
          "internalType": "uint256",
          "name": "",
          "type": "uint256"
        }
      ],
      "name": "projects",
      "outputs": [
        {
          "internalType": "address",
          "name": "",
          "type": "address"
        }
      ],
      "stateMutability": "view",
      "type": "function",
      "constant": true
    },
    {
      "inputs": [],
      "name": "renounceOwnership",
      "outputs": [],
      "stateMutability": "nonpayable",
      "type": "function"
    },
    {
      "inputs": [
        {
          "internalType": "bytes32",
          "name": "role",
          "type": "bytes32"
        },
        {
          "internalType": "address",
          "name": "account",
          "type": "address"
        }
      ],
      "name": "renounceRole",
      "outputs": [],
      "stateMutability": "nonpayable",
      "type": "function"
    },
    {
      "inputs": [
        {
          "internalType": "bytes32",
          "name": "role",
          "type": "bytes32"
        },
        {
          "internalType": "address",
          "name": "account",
          "type": "address"
        }
      ],
      "name": "revokeRole",
      "outputs": [],
      "stateMutability": "nonpayable",
      "type": "function"
    },
    {
      "inputs": [
        {
          "internalType": "address",
          "name": "from",
          "type": "address"
        },
        {
          "internalType": "address",
          "name": "to",
          "type": "address"
        },
        {
          "internalType": "uint256",
          "name": "tokenId",
          "type": "uint256"
        }
      ],
      "name": "safeTransferFrom",
      "outputs": [],
      "stateMutability": "nonpayable",
      "type": "function"
    },
    {
      "inputs": [
        {
          "internalType": "address",
          "name": "from",
          "type": "address"
        },
        {
          "internalType": "address",
          "name": "to",
          "type": "address"
        },
        {
          "internalType": "uint256",
          "name": "tokenId",
          "type": "uint256"
        },
        {
          "internalType": "bytes",
          "name": "data",
          "type": "bytes"
        }
      ],
      "name": "safeTransferFrom",
      "outputs": [],
      "stateMutability": "nonpayable",
      "type": "function"
    },
    {
      "inputs": [
        {
          "internalType": "address",
          "name": "operator",
          "type": "address"
        },
        {
          "internalType": "bool",
          "name": "approved",
          "type": "bool"
        }
      ],
      "name": "setApprovalForAll",
      "outputs": [],
      "stateMutability": "nonpayable",
      "type": "function"
    },
    {
      "inputs": [],
      "name": "symbol",
      "outputs": [
        {
          "internalType": "string",
          "name": "",
          "type": "string"
        }
      ],
      "stateMutability": "view",
      "type": "function",
      "constant": true
    },
    {
      "inputs": [
        {
          "internalType": "address",
          "name": "from",
          "type": "address"
        },
        {
          "internalType": "address",
          "name": "to",
          "type": "address"
        },
        {
          "internalType": "uint256",
          "name": "tokenId",
          "type": "uint256"
        }
      ],
      "name": "transferFrom",
      "outputs": [],
      "stateMutability": "nonpayable",
      "type": "function"
    },
    {
      "inputs": [
        {
          "internalType": "address",
          "name": "newOwner",
          "type": "address"
        }
      ],
      "name": "transferOwnership",
      "outputs": [],
      "stateMutability": "nonpayable",
      "type": "function"
    },
    {
      "inputs": [
        {
          "internalType": "uint256",
          "name": "amount",
          "type": "uint256"
        },
        {
          "internalType": "address",
          "name": "seniorAddress",
          "type": "address"
        },
        {
          "internalType": "address",
          "name": "clientAddress",
          "type": "address"
        },
        {
          "internalType": "string",
          "name": "ipfsHash",
          "type": "string"
        }
      ],
      "name": "createProject",
      "outputs": [],
      "stateMutability": "nonpayable",
      "type": "function"
    },
    {
      "inputs": [
        {
          "internalType": "uint256",
          "name": "tokenId",
          "type": "uint256"
        },
        {
          "internalType": "address",
          "name": "to",
          "type": "address"
        },
        {
          "internalType": "string",
          "name": "uri",
          "type": "string"
        }
      ],
      "name": "safeMint",
      "outputs": [],
      "stateMutability": "nonpayable",
      "type": "function"
    },
    {
      "inputs": [
        {
          "internalType": "uint256",
          "name": "tokenId",
          "type": "uint256"
        }
      ],
      "name": "tokenURI",
      "outputs": [
        {
          "internalType": "string",
          "name": "",
          "type": "string"
        }
      ],
      "stateMutability": "view",
      "type": "function",
      "constant": true
    },
    {
      "inputs": [
        {
          "internalType": "bytes4",
          "name": "interfaceId",
          "type": "bytes4"
        }
      ],
      "name": "supportsInterface",
      "outputs": [
        {
          "internalType": "bool",
          "name": "",
          "type": "bool"
        }
      ],
      "stateMutability": "view",
      "type": "function",
      "constant": true
    },
    {
      "inputs": [
        {
          "internalType": "address",
          "name": "_user",
          "type": "address"
        }
      ],
      "name": "getProjectsOfUser",
      "outputs": [
        {
          "internalType": "address[]",
          "name": "",
          "type": "address[]"
        }
      ],
      "stateMutability": "view",
      "type": "function",
      "constant": true
    }
  ],
  "bytecode": "0x60a06040523480156200001157600080fd5b506040518060400160405280600981526020017f53796e7468576f726b00000000000000000000000000000000000000000000008152506040518060400160405280600481526020017f534e574b0000000000000000000000000000000000000000000000000000000081525081600090816200008f919062000639565b508060019081620000a1919062000639565b505050620000c4620000b86200017060201b60201c565b6200017860201b60201c565b604051620000d290620003b1565b604051809103906000f080158015620000ef573d6000803e3d6000fd5b5073ffffffffffffffffffffffffffffffffffffffff1660808173ffffffffffffffffffffffffffffffffffffffff1681525050620001386000801b336200023e60201b60201c565b6200016a7f9f2df0fed2c77648de5860a4cc508cd0818c85b8b8a1ab4ceeef8d981c8956a6336200023e60201b60201c565b62000720565b600033905090565b6000600860009054906101000a900473ffffffffffffffffffffffffffffffffffffffff16905081600860006101000a81548173ffffffffffffffffffffffffffffffffffffffff021916908373ffffffffffffffffffffffffffffffffffffffff1602179055508173ffffffffffffffffffffffffffffffffffffffff168173ffffffffffffffffffffffffffffffffffffffff167f8be0079c531659141344cd1fd0a4f28419497f9722a3daafe3b4186f6b6457e060405160405180910390a35050565b6200025082826200025460201b60201c565b5050565b6200026682826200034660201b60201c565b620003425760016007600084815260200190815260200160002060000160008373ffffffffffffffffffffffffffffffffffffffff1673ffffffffffffffffffffffffffffffffffffffff16815260200190815260200160002060006101000a81548160ff021916908315150217905550620002e76200017060201b60201c565b73ffffffffffffffffffffffffffffffffffffffff168173ffffffffffffffffffffffffffffffffffffffff16837f2f8788117e7eff1d82e926ec794901d17c78024a50270940304540a733656f0d60405160405180910390a45b5050565b60006007600084815260200190815260200160002060000160008373ffffffffffffffffffffffffffffffffffffffff1673ffffffffffffffffffffffffffffffffffffffff16815260200190815260200160002060009054906101000a900460ff16905092915050565b6125bf8062004fa783390190565b600081519050919050565b7f4e487b7100000000000000000000000000000000000000000000000000000000600052604160045260246000fd5b7f4e487b7100000000000000000000000000000000000000000000000000000000600052602260045260246000fd5b600060028204905060018216806200044157607f821691505b602082108103620004575762000456620003f9565b5b50919050565b60008190508160005260206000209050919050565b60006020601f8301049050919050565b600082821b905092915050565b600060088302620004c17fffffffffffffffffffffffffffffffffffffffffffffffffffffffffffffffff8262000482565b620004cd868362000482565b95508019841693508086168417925050509392505050565b6000819050919050565b6000819050919050565b60006200051a620005146200050e84620004e5565b620004ef565b620004e5565b9050919050565b6000819050919050565b6200053683620004f9565b6200054e620005458262000521565b8484546200048f565b825550505050565b600090565b6200056562000556565b620005728184846200052b565b505050565b5b818110156200059a576200058e6000826200055b565b60018101905062000578565b5050565b601f821115620005e957620005b3816200045d565b620005be8462000472565b81016020851015620005ce578190505b620005e6620005dd8562000472565b83018262000577565b50505b505050565b600082821c905092915050565b60006200060e60001984600802620005ee565b1980831691505092915050565b6000620006298383620005fb565b9150826002028217905092915050565b6200064482620003bf565b67ffffffffffffffff81111562000660576200065f620003ca565b5b6200066c825462000428565b620006798282856200059e565b600060209050601f831160018114620006b157600084156200069c578287015190505b620006a885826200061b565b86555062000718565b601f198416620006c1866200045d565b60005b82811015620006eb57848901518255600182019150602085019450602081019050620006c4565b868310156200070b578489015162000707601f891682620005fb565b8355505b6001600288020188555050505b505050505050565b6080516148646200074360003960008181610a600152610c8201526148646000f3fe608060405234801561001057600080fd5b50600436106101c45760003560e01c8063715018a6116100f9578063b88d4fde11610097578063d547741f11610071578063d547741f14610517578063e985e9c514610533578063f2fde38b14610563578063f626cf2c1461057f576101c4565b8063b88d4fde146104ad578063c87b56dd146104c9578063d5391393146104f9576101c4565b806391d14854116100d357806391d148541461042557806395d89b4114610455578063a217fddf14610473578063a22cb46514610491576101c4565b8063715018a6146103cd5780638b610a21146103d75780638da5cb5b14610407576101c4565b80632f2ff15d1161016657806342842e0e1161014057806342842e0e146103335780635c60da1b1461034f5780636352211e1461036d57806370a082311461039d576101c4565b80632f2ff15d146102df57806336568abe146102fb5780633d9ede6814610317576101c4565b8063095ea7b3116101a2578063095ea7b314610247578063107046bd1461026357806323b872dd14610293578063248a9ca3146102af576101c4565b806301ffc9a7146101c957806306fdde03146101f9578063081812fc14610217575b600080fd5b6101e360048036038101906101de9190612f1b565b61059b565b6040516101f09190612f63565b60405180910390f35b6102016105ad565b60405161020e919061300e565b60405180910390f35b610231600480360381019061022c9190613066565b61063f565b60405161023e91906130d4565b60405180910390f35b610261600480360381019061025c919061311b565b610685565b005b61027d60048036038101906102789190613066565b61079c565b60405161028a91906130d4565b60405180910390f35b6102ad60048036038101906102a8919061315b565b6107db565b005b6102c960048036038101906102c491906131e4565b61083b565b6040516102d69190613220565b60405180910390f35b6102f960048036038101906102f4919061323b565b61085b565b005b6103156004803603810190610310919061323b565b61087c565b005b610331600480360381019061032c91906132e0565b6108ff565b005b61034d6004803603810190610348919061315b565b610c60565b005b610357610c80565b60405161036491906130d4565b60405180910390f35b61038760048036038101906103829190613066565b610ca4565b60405161039491906130d4565b60405180910390f35b6103b760048036038101906103b29190613368565b610d2a565b6040516103c491906133a4565b60405180910390f35b6103d5610de1565b005b6103f160048036038101906103ec9190613368565b610df5565b6040516103fe919061347d565b60405180910390f35b61040f61122d565b60405161041c91906130d4565b60405180910390f35b61043f600480360381019061043a919061323b565b611257565b60405161044c9190612f63565b60405180910390f35b61045d6112c2565b60405161046a919061300e565b60405180910390f35b61047b611354565b6040516104889190613220565b60405180910390f35b6104ab60048036038101906104a691906134cb565b61135b565b005b6104c760048036038101906104c2919061363b565b611371565b005b6104e360048036038101906104de9190613066565b6113d3565b6040516104f0919061300e565b60405180910390f35b6105016113e5565b60405161050e9190613220565b60405180910390f35b610531600480360381019061052c919061323b565b611409565b005b61054d600480360381019061054891906136be565b61142a565b60405161055a9190612f63565b60405180910390f35b61057d60048036038101906105789190613368565b6114be565b005b6105996004803603810190610594919061379f565b611541565b005b60006105a682611585565b9050919050565b6060600080546105bc9061383d565b80601f01602080910402602001604051908101604052809291908181526020018280546105e89061383d565b80156106355780601f1061060a57610100808354040283529160200191610635565b820191906000526020600020905b81548152906001019060200180831161061857829003601f168201915b5050505050905090565b600061064a826115ff565b6004600083815260200190815260200160002060009054906101000a900473ffffffffffffffffffffffffffffffffffffffff169050919050565b600061069082610ca4565b90508073ffffffffffffffffffffffffffffffffffffffff168373ffffffffffffffffffffffffffffffffffffffff1603610700576040517f08c379a00000000000000000000000000000000000000000000000000000000081526004016106f7906138e0565b60405180910390fd5b8073ffffffffffffffffffffffffffffffffffffffff1661071f61164a565b73ffffffffffffffffffffffffffffffffffffffff16148061074e575061074d8161074861164a565b61142a565b5b61078d576040517f08c379a000000000000000000000000000000000000000000000000000000000815260040161078490613972565b60405180910390fd5b6107978383611652565b505050565b600a81815481106107ac57600080fd5b906000526020600020016000915054906101000a900473ffffffffffffffffffffffffffffffffffffffff1681565b6107ec6107e661164a565b8261170b565b61082b576040517f08c379a000000000000000000000000000000000000000000000000000000000815260040161082290613a04565b60405180910390fd5b6108368383836117a0565b505050565b600060076000838152602001908152602001600020600101549050919050565b6108648261083b565b61086d81611a99565b6108778383611aad565b505050565b61088461164a565b73ffffffffffffffffffffffffffffffffffffffff168173ffffffffffffffffffffffffffffffffffffffff16146108f1576040517f08c379a00000000000000000000000000000000000000000000000000000000081526004016108e890613a96565b60405180910390fd5b6108fb8282611b8e565b5050565b600073ffffffffffffffffffffffffffffffffffffffff168473ffffffffffffffffffffffffffffffffffffffff160361096e576040517f08c379a000000000000000000000000000000000000000000000000000000000815260040161096590613b02565b60405180910390fd5b600073ffffffffffffffffffffffffffffffffffffffff168373ffffffffffffffffffffffffffffffffffffffff16036109dd576040517f08c379a00000000000000000000000000000000000000000000000000000000081526004016109d490613b02565b60405180910390fd5b8273ffffffffffffffffffffffffffffffffffffffff168473ffffffffffffffffffffffffffffffffffffffff1603610a4b576040517f08c379a0000000000000000000000000000000000000000000000000000000008152600401610a4290613b02565b60405180910390fd5b6000610a576009611c70565b90506000610a847f0000000000000000000000000000000000000000000000000000000000000000611c7e565b90508073ffffffffffffffffffffffffffffffffffffffff1663d67ee9c68389338a8a308b8b6040518963ffffffff1660e01b8152600401610acd989796959493929190613b4f565b600060405180830381600087803b158015610ae757600080fd5b505af1158015610afb573d6000803e3d6000fd5b50505050600a819080600181540180825580915050600190039060005260206000200160009091909190916101000a81548173ffffffffffffffffffffffffffffffffffffffff021916908373ffffffffffffffffffffffffffffffffffffffff16021790555060405180606001604052803373ffffffffffffffffffffffffffffffffffffffff1673ffffffffffffffffffffffffffffffffffffffff1681526020018773ffffffffffffffffffffffffffffffffffffffff1673ffffffffffffffffffffffffffffffffffffffff1681526020018673ffffffffffffffffffffffffffffffffffffffff1673ffffffffffffffffffffffffffffffffffffffff16815250600b6000848152602001908152602001600020906003610c22929190612e15565b50610c2d6009611d38565b610c577f9f2df0fed2c77648de5860a4cc508cd0818c85b8b8a1ab4ceeef8d981c8956a682611aad565b50505050505050565b610c7b83838360405180602001604052806000815250611371565b505050565b7f000000000000000000000000000000000000000000000000000000000000000081565b600080610cb083611d4e565b9050600073ffffffffffffffffffffffffffffffffffffffff168173ffffffffffffffffffffffffffffffffffffffff1603610d21576040517f08c379a0000000000000000000000000000000000000000000000000000000008152600401610d1890613c13565b60405180910390fd5b80915050919050565b60008073ffffffffffffffffffffffffffffffffffffffff168273ffffffffffffffffffffffffffffffffffffffff1603610d9a576040517f08c379a0000000000000000000000000000000000000000000000000000000008152600401610d9190613ca5565b60405180910390fd5b600360008373ffffffffffffffffffffffffffffffffffffffff1673ffffffffffffffffffffffffffffffffffffffff168152602001908152602001600020549050919050565b610de9611d8b565b610df36000611e09565b565b60606000805b600a80549050811015610f9f578373ffffffffffffffffffffffffffffffffffffffff16600b6000838152602001908152602001600020600060038110610e4557610e44613cc5565b5b0160009054906101000a900473ffffffffffffffffffffffffffffffffffffffff1673ffffffffffffffffffffffffffffffffffffffff161480610efb57508373ffffffffffffffffffffffffffffffffffffffff16600b6000838152602001908152602001600020600160038110610ec157610ec0613cc5565b5b0160009054906101000a900473ffffffffffffffffffffffffffffffffffffffff1673ffffffffffffffffffffffffffffffffffffffff16145b80610f7857508373ffffffffffffffffffffffffffffffffffffffff16600b6000838152602001908152602001600020600260038110610f3e57610f3d613cc5565b5b0160009054906101000a900473ffffffffffffffffffffffffffffffffffffffff1673ffffffffffffffffffffffffffffffffffffffff16145b15610f8c578180610f8890613d23565b9250505b8080610f9790613d23565b915050610dfb565b5060008167ffffffffffffffff811115610fbc57610fbb613510565b5b604051908082528060200260200182016040528015610fea5781602001602082028036833780820191505090505b5090506000805b600a80549050811015611221578573ffffffffffffffffffffffffffffffffffffffff16600b600083815260200190815260200160002060006003811061103b5761103a613cc5565b5b0160009054906101000a900473ffffffffffffffffffffffffffffffffffffffff1673ffffffffffffffffffffffffffffffffffffffff1614806110f157508573ffffffffffffffffffffffffffffffffffffffff16600b60008381526020019081526020016000206001600381106110b7576110b6613cc5565b5b0160009054906101000a900473ffffffffffffffffffffffffffffffffffffffff1673ffffffffffffffffffffffffffffffffffffffff16145b8061116e57508573ffffffffffffffffffffffffffffffffffffffff16600b600083815260200190815260200160002060026003811061113457611133613cc5565b5b0160009054906101000a900473ffffffffffffffffffffffffffffffffffffffff1673ffffffffffffffffffffffffffffffffffffffff16145b1561120e57600a818154811061118757611186613cc5565b5b9060005260206000200160009054906101000a900473ffffffffffffffffffffffffffffffffffffffff168383815181106111c5576111c4613cc5565b5b602002602001019073ffffffffffffffffffffffffffffffffffffffff16908173ffffffffffffffffffffffffffffffffffffffff1681525050818061120a90613d23565b9250505b808061121990613d23565b915050610ff1565b50819350505050919050565b6000600860009054906101000a900473ffffffffffffffffffffffffffffffffffffffff16905090565b60006007600084815260200190815260200160002060000160008373ffffffffffffffffffffffffffffffffffffffff1673ffffffffffffffffffffffffffffffffffffffff16815260200190815260200160002060009054906101000a900460ff16905092915050565b6060600180546112d19061383d565b80601f01602080910402602001604051908101604052809291908181526020018280546112fd9061383d565b801561134a5780601f1061131f5761010080835404028352916020019161134a565b820191906000526020600020905b81548152906001019060200180831161132d57829003601f168201915b5050505050905090565b6000801b81565b61136d61136661164a565b8383611ecf565b5050565b61138261137c61164a565b8361170b565b6113c1576040517f08c379a00000000000000000000000000000000000000000000000000000000081526004016113b890613a04565b60405180910390fd5b6113cd8484848461203b565b50505050565b60606113de82612097565b9050919050565b7f9f2df0fed2c77648de5860a4cc508cd0818c85b8b8a1ab4ceeef8d981c8956a681565b6114128261083b565b61141b81611a99565b6114258383611b8e565b505050565b6000600560008473ffffffffffffffffffffffffffffffffffffffff1673ffffffffffffffffffffffffffffffffffffffff16815260200190815260200160002060008373ffffffffffffffffffffffffffffffffffffffff1673ffffffffffffffffffffffffffffffffffffffff16815260200190815260200160002060009054906101000a900460ff16905092915050565b6114c6611d8b565b600073ffffffffffffffffffffffffffffffffffffffff168173ffffffffffffffffffffffffffffffffffffffff1603611535576040517f08c379a000000000000000000000000000000000000000000000000000000000815260040161152c90613ddd565b60405180910390fd5b61153e81611e09565b50565b7f9f2df0fed2c77648de5860a4cc508cd0818c85b8b8a1ab4ceeef8d981c8956a661156b81611a99565b61157583856121a9565b61157f84836121c7565b50505050565b60007f7965db0b000000000000000000000000000000000000000000000000000000007bffffffffffffffffffffffffffffffffffffffffffffffffffffffff1916827bffffffffffffffffffffffffffffffffffffffffffffffffffffffff191614806115f857506115f78261226b565b5b9050919050565b611608816122cc565b611647576040517f08c379a000000000000000000000000000000000000000000000000000000000815260040161163e90613c13565b60405180910390fd5b50565b600033905090565b816004600083815260200190815260200160002060006101000a81548173ffffffffffffffffffffffffffffffffffffffff021916908373ffffffffffffffffffffffffffffffffffffffff160217905550808273ffffffffffffffffffffffffffffffffffffffff166116c583610ca4565b73ffffffffffffffffffffffffffffffffffffffff167f8c5be1e5ebec7d5bd14f71427d1e84f3dd0314c0f7b2291e5b200ac8c7c3b92560405160405180910390a45050565b60008061171783610ca4565b90508073ffffffffffffffffffffffffffffffffffffffff168473ffffffffffffffffffffffffffffffffffffffff1614806117595750611758818561142a565b5b8061179757508373ffffffffffffffffffffffffffffffffffffffff1661177f8461063f565b73ffffffffffffffffffffffffffffffffffffffff16145b91505092915050565b8273ffffffffffffffffffffffffffffffffffffffff166117c082610ca4565b73ffffffffffffffffffffffffffffffffffffffff1614611816576040517f08c379a000000000000000000000000000000000000000000000000000000000815260040161180d90613e6f565b60405180910390fd5b600073ffffffffffffffffffffffffffffffffffffffff168273ffffffffffffffffffffffffffffffffffffffff1603611885576040517f08c379a000000000000000000000000000000000000000000000000000000000815260040161187c90613f01565b60405180910390fd5b611892838383600161230d565b8273ffffffffffffffffffffffffffffffffffffffff166118b282610ca4565b73ffffffffffffffffffffffffffffffffffffffff1614611908576040517f08c379a00000000000000000000000000000000000000000000000000000000081526004016118ff90613e6f565b60405180910390fd5b6004600082815260200190815260200160002060006101000a81549073ffffffffffffffffffffffffffffffffffffffff02191690556001600360008573ffffffffffffffffffffffffffffffffffffffff1673ffffffffffffffffffffffffffffffffffffffff168152602001908152602001600020600082825403925050819055506001600360008473ffffffffffffffffffffffffffffffffffffffff1673ffffffffffffffffffffffffffffffffffffffff16815260200190815260200160002060008282540192505081905550816002600083815260200190815260200160002060006101000a81548173ffffffffffffffffffffffffffffffffffffffff021916908373ffffffffffffffffffffffffffffffffffffffff160217905550808273ffffffffffffffffffffffffffffffffffffffff168473ffffffffffffffffffffffffffffffffffffffff167fddf252ad1be2c89b69c2b068fc378daa952ba7f163c4a11628f55a4df523b3ef60405160405180910390a4611a948383836001612313565b505050565b611aaa81611aa561164a565b612319565b50565b611ab78282611257565b611b8a5760016007600084815260200190815260200160002060000160008373ffffffffffffffffffffffffffffffffffffffff1673ffffffffffffffffffffffffffffffffffffffff16815260200190815260200160002060006101000a81548160ff021916908315150217905550611b2f61164a565b73ffffffffffffffffffffffffffffffffffffffff168173ffffffffffffffffffffffffffffffffffffffff16837f2f8788117e7eff1d82e926ec794901d17c78024a50270940304540a733656f0d60405160405180910390a45b5050565b611b988282611257565b15611c6c5760006007600084815260200190815260200160002060000160008373ffffffffffffffffffffffffffffffffffffffff1673ffffffffffffffffffffffffffffffffffffffff16815260200190815260200160002060006101000a81548160ff021916908315150217905550611c1161164a565b73ffffffffffffffffffffffffffffffffffffffff168173ffffffffffffffffffffffffffffffffffffffff16837ff6391f5c32d9c69d2a47ea670b442974b53935d1edc7fd64eb21e047a839171b60405160405180910390a45b5050565b600081600001549050919050565b6000763d602d80600a3d3981f3363d3d373d3d3d363d730000008260601b60e81c176000526e5af43d82803e903d91602b57fd5bf38260781b17602052603760096000f09050600073ffffffffffffffffffffffffffffffffffffffff168173ffffffffffffffffffffffffffffffffffffffff1603611d33576040517f08c379a0000000000000000000000000000000000000000000000000000000008152600401611d2a90613f6d565b60405180910390fd5b919050565b6001816000016000828254019250508190555050565b60006002600083815260200190815260200160002060009054906101000a900473ffffffffffffffffffffffffffffffffffffffff169050919050565b611d9361164a565b73ffffffffffffffffffffffffffffffffffffffff16611db161122d565b73ffffffffffffffffffffffffffffffffffffffff1614611e07576040517f08c379a0000000000000000000000000000000000000000000000000000000008152600401611dfe90613fd9565b60405180910390fd5b565b6000600860009054906101000a900473ffffffffffffffffffffffffffffffffffffffff16905081600860006101000a81548173ffffffffffffffffffffffffffffffffffffffff021916908373ffffffffffffffffffffffffffffffffffffffff1602179055508173ffffffffffffffffffffffffffffffffffffffff168173ffffffffffffffffffffffffffffffffffffffff167f8be0079c531659141344cd1fd0a4f28419497f9722a3daafe3b4186f6b6457e060405160405180910390a35050565b8173ffffffffffffffffffffffffffffffffffffffff168373ffffffffffffffffffffffffffffffffffffffff1603611f3d576040517f08c379a0000000000000000000000000000000000000000000000000000000008152600401611f3490614045565b60405180910390fd5b80600560008573ffffffffffffffffffffffffffffffffffffffff1673ffffffffffffffffffffffffffffffffffffffff16815260200190815260200160002060008473ffffffffffffffffffffffffffffffffffffffff1673ffffffffffffffffffffffffffffffffffffffff16815260200190815260200160002060006101000a81548160ff0219169083151502179055508173ffffffffffffffffffffffffffffffffffffffff168373ffffffffffffffffffffffffffffffffffffffff167f17307eab39ab6107e8899845ad3d59bd9653f200f220920489ca2b5937696c318360405161202e9190612f63565b60405180910390a3505050565b6120468484846117a0565b6120528484848461239e565b612091576040517f08c379a0000000000000000000000000000000000000000000000000000000008152600401612088906140d7565b60405180910390fd5b50505050565b60606120a2826115ff565b60006006600084815260200190815260200160002080546120c29061383d565b80601f01602080910402602001604051908101604052809291908181526020018280546120ee9061383d565b801561213b5780601f106121105761010080835404028352916020019161213b565b820191906000526020600020905b81548152906001019060200180831161211e57829003601f168201915b50505050509050600061214c612525565b905060008151036121615781925050506121a4565b60008251111561219657808260405160200161217e929190614133565b604051602081830303815290604052925050506121a4565b61219f8461253c565b925050505b919050565b6121c38282604051806020016040528060008152506125a4565b5050565b6121d0826122cc565b61220f576040517f08c379a0000000000000000000000000000000000000000000000000000000008152600401612206906141c9565b60405180910390fd5b8060066000848152602001908152602001600020908161222f9190614395565b507ff8e1a15aba9398e019f0b49df1a4fde98ee17ae345cb5f6b5e2c27f5033e8ce78260405161225f91906133a4565b60405180910390a15050565b6000634906490660e01b7bffffffffffffffffffffffffffffffffffffffffffffffffffffffff1916827bffffffffffffffffffffffffffffffffffffffffffffffffffffffff191614806122c557506122c4826125ff565b5b9050919050565b60008073ffffffffffffffffffffffffffffffffffffffff166122ee83611d4e565b73ffffffffffffffffffffffffffffffffffffffff1614159050919050565b50505050565b50505050565b6123238282611257565b61239a57612330816126e1565b61233e8360001c602061270e565b60405160200161234f9291906144ff565b6040516020818303038152906040526040517f08c379a0000000000000000000000000000000000000000000000000000000008152600401612391919061300e565b60405180910390fd5b5050565b60006123bf8473ffffffffffffffffffffffffffffffffffffffff1661294a565b15612518578373ffffffffffffffffffffffffffffffffffffffff1663150b7a026123e861164a565b8786866040518563ffffffff1660e01b815260040161240a949392919061458e565b6020604051808303816000875af192505050801561244657506040513d601f19601f8201168201806040525081019061244391906145ef565b60015b6124c8573d8060008114612476576040519150601f19603f3d011682016040523d82523d6000602084013e61247b565b606091505b5060008151036124c0576040517f08c379a00000000000000000000000000000000000000000000000000000000081526004016124b7906140d7565b60405180910390fd5b805181602001fd5b63150b7a0260e01b7bffffffffffffffffffffffffffffffffffffffffffffffffffffffff1916817bffffffffffffffffffffffffffffffffffffffffffffffffffffffff19161491505061251d565b600190505b949350505050565b606060405180602001604052806000815250905090565b6060612547826115ff565b6000612551612525565b90506000815111612571576040518060200160405280600081525061259c565b8061257b8461296d565b60405160200161258c929190614133565b6040516020818303038152906040525b915050919050565b6125ae8383612a3b565b6125bb600084848461239e565b6125fa576040517f08c379a00000000000000000000000000000000000000000000000000000000081526004016125f1906140d7565b60405180910390fd5b505050565b60007f80ac58cd000000000000000000000000000000000000000000000000000000007bffffffffffffffffffffffffffffffffffffffffffffffffffffffff1916827bffffffffffffffffffffffffffffffffffffffffffffffffffffffff191614806126ca57507f5b5e139f000000000000000000000000000000000000000000000000000000007bffffffffffffffffffffffffffffffffffffffffffffffffffffffff1916827bffffffffffffffffffffffffffffffffffffffffffffffffffffffff1916145b806126da57506126d982612c58565b5b9050919050565b60606127078273ffffffffffffffffffffffffffffffffffffffff16601460ff1661270e565b9050919050565b606060006002836002612721919061461c565b61272b919061465e565b67ffffffffffffffff81111561274457612743613510565b5b6040519080825280601f01601f1916602001820160405280156127765781602001600182028036833780820191505090505b5090507f3000000000000000000000000000000000000000000000000000000000000000816000815181106127ae576127ad613cc5565b5b60200101907effffffffffffffffffffffffffffffffffffffffffffffffffffffffffffff1916908160001a9053507f78000000000000000000000000000000000000000000000000000000000000008160018151811061281257612811613cc5565b5b60200101907effffffffffffffffffffffffffffffffffffffffffffffffffffffffffffff1916908160001a90535060006001846002612852919061461c565b61285c919061465e565b90505b60018111156128fc577f3031323334353637383961626364656600000000000000000000000000000000600f86166010811061289e5761289d613cc5565b5b1a60f81b8282815181106128b5576128b4613cc5565b5b60200101907effffffffffffffffffffffffffffffffffffffffffffffffffffffffffffff1916908160001a905350600485901c9450806128f590614692565b905061285f565b5060008414612940576040517f08c379a000000000000000000000000000000000000000000000000000000000815260040161293790614707565b60405180910390fd5b8091505092915050565b6000808273ffffffffffffffffffffffffffffffffffffffff163b119050919050565b60606000600161297c84612cc2565b01905060008167ffffffffffffffff81111561299b5761299a613510565b5b6040519080825280601f01601f1916602001820160405280156129cd5781602001600182028036833780820191505090505b509050600082602001820190505b600115612a30578080600190039150507f3031323334353637383961626364656600000000000000000000000000000000600a86061a8153600a8581612a2457612a23614727565b5b049450600085036129db575b819350505050919050565b600073ffffffffffffffffffffffffffffffffffffffff168273ffffffffffffffffffffffffffffffffffffffff1603612aaa576040517f08c379a0000000000000000000000000000000000000000000000000000000008152600401612aa1906147a2565b60405180910390fd5b612ab3816122cc565b15612af3576040517f08c379a0000000000000000000000000000000000000000000000000000000008152600401612aea9061480e565b60405180910390fd5b612b0160008383600161230d565b612b0a816122cc565b15612b4a576040517f08c379a0000000000000000000000000000000000000000000000000000000008152600401612b419061480e565b60405180910390fd5b6001600360008473ffffffffffffffffffffffffffffffffffffffff1673ffffffffffffffffffffffffffffffffffffffff16815260200190815260200160002060008282540192505081905550816002600083815260200190815260200160002060006101000a81548173ffffffffffffffffffffffffffffffffffffffff021916908373ffffffffffffffffffffffffffffffffffffffff160217905550808273ffffffffffffffffffffffffffffffffffffffff16600073ffffffffffffffffffffffffffffffffffffffff167fddf252ad1be2c89b69c2b068fc378daa952ba7f163c4a11628f55a4df523b3ef60405160405180910390a4612c54600083836001612313565b5050565b60007f01ffc9a7000000000000000000000000000000000000000000000000000000007bffffffffffffffffffffffffffffffffffffffffffffffffffffffff1916827bffffffffffffffffffffffffffffffffffffffffffffffffffffffff1916149050919050565b600080600090507a184f03e93ff9f4daa797ed6e38ed64bf6a1f0100000000000000008310612d20577a184f03e93ff9f4daa797ed6e38ed64bf6a1f0100000000000000008381612d1657612d15614727565b5b0492506040810190505b6d04ee2d6d415b85acef81000000008310612d5d576d04ee2d6d415b85acef81000000008381612d5357612d52614727565b5b0492506020810190505b662386f26fc100008310612d8c57662386f26fc100008381612d8257612d81614727565b5b0492506010810190505b6305f5e1008310612db5576305f5e1008381612dab57612daa614727565b5b0492506008810190505b6127108310612dda576127108381612dd057612dcf614727565b5b0492506004810190505b60648310612dfd5760648381612df357612df2614727565b5b0492506002810190505b600a8310612e0c576001810190505b80915050919050565b8260038101928215612e81579160200282015b82811115612e805782518260006101000a81548173ffffffffffffffffffffffffffffffffffffffff021916908373ffffffffffffffffffffffffffffffffffffffff16021790555091602001919060010190612e28565b5b509050612e8e9190612e92565b5090565b5b80821115612eab576000816000905550600101612e93565b5090565b6000604051905090565b600080fd5b600080fd5b60007fffffffff0000000000000000000000000000000000000000000000000000000082169050919050565b612ef881612ec3565b8114612f0357600080fd5b50565b600081359050612f1581612eef565b92915050565b600060208284031215612f3157612f30612eb9565b5b6000612f3f84828501612f06565b91505092915050565b60008115159050919050565b612f5d81612f48565b82525050565b6000602082019050612f786000830184612f54565b92915050565b600081519050919050565b600082825260208201905092915050565b60005b83811015612fb8578082015181840152602081019050612f9d565b60008484015250505050565b6000601f19601f8301169050919050565b6000612fe082612f7e565b612fea8185612f89565b9350612ffa818560208601612f9a565b61300381612fc4565b840191505092915050565b600060208201905081810360008301526130288184612fd5565b905092915050565b6000819050919050565b61304381613030565b811461304e57600080fd5b50565b6000813590506130608161303a565b92915050565b60006020828403121561307c5761307b612eb9565b5b600061308a84828501613051565b91505092915050565b600073ffffffffffffffffffffffffffffffffffffffff82169050919050565b60006130be82613093565b9050919050565b6130ce816130b3565b82525050565b60006020820190506130e960008301846130c5565b92915050565b6130f8816130b3565b811461310357600080fd5b50565b600081359050613115816130ef565b92915050565b6000806040838503121561313257613131612eb9565b5b600061314085828601613106565b925050602061315185828601613051565b9150509250929050565b60008060006060848603121561317457613173612eb9565b5b600061318286828701613106565b935050602061319386828701613106565b92505060406131a486828701613051565b9150509250925092565b6000819050919050565b6131c1816131ae565b81146131cc57600080fd5b50565b6000813590506131de816131b8565b92915050565b6000602082840312156131fa576131f9612eb9565b5b6000613208848285016131cf565b91505092915050565b61321a816131ae565b82525050565b60006020820190506132356000830184613211565b92915050565b6000806040838503121561325257613251612eb9565b5b6000613260858286016131cf565b925050602061327185828601613106565b9150509250929050565b600080fd5b600080fd5b600080fd5b60008083601f8401126132a05761329f61327b565b5b8235905067ffffffffffffffff8111156132bd576132bc613280565b5b6020830191508360018202830111156132d9576132d8613285565b5b9250929050565b6000806000806000608086880312156132fc576132fb612eb9565b5b600061330a88828901613051565b955050602061331b88828901613106565b945050604061332c88828901613106565b935050606086013567ffffffffffffffff81111561334d5761334c612ebe565b5b6133598882890161328a565b92509250509295509295909350565b60006020828403121561337e5761337d612eb9565b5b600061338c84828501613106565b91505092915050565b61339e81613030565b82525050565b60006020820190506133b96000830184613395565b92915050565b600081519050919050565b600082825260208201905092915050565b6000819050602082019050919050565b6133f4816130b3565b82525050565b600061340683836133eb565b60208301905092915050565b6000602082019050919050565b600061342a826133bf565b61343481856133ca565b935061343f836133db565b8060005b8381101561347057815161345788826133fa565b975061346283613412565b925050600181019050613443565b5085935050505092915050565b60006020820190508181036000830152613497818461341f565b905092915050565b6134a881612f48565b81146134b357600080fd5b50565b6000813590506134c58161349f565b92915050565b600080604083850312156134e2576134e1612eb9565b5b60006134f085828601613106565b9250506020613501858286016134b6565b9150509250929050565b600080fd5b7f4e487b7100000000000000000000000000000000000000000000000000000000600052604160045260246000fd5b61354882612fc4565b810181811067ffffffffffffffff8211171561356757613566613510565b5b80604052505050565b600061357a612eaf565b9050613586828261353f565b919050565b600067ffffffffffffffff8211156135a6576135a5613510565b5b6135af82612fc4565b9050602081019050919050565b82818337600083830152505050565b60006135de6135d98461358b565b613570565b9050828152602081018484840111156135fa576135f961350b565b5b6136058482856135bc565b509392505050565b600082601f8301126136225761362161327b565b5b81356136328482602086016135cb565b91505092915050565b6000806000806080858703121561365557613654612eb9565b5b600061366387828801613106565b945050602061367487828801613106565b935050604061368587828801613051565b925050606085013567ffffffffffffffff8111156136a6576136a5612ebe565b5b6136b28782880161360d565b91505092959194509250565b600080604083850312156136d5576136d4612eb9565b5b60006136e385828601613106565b92505060206136f485828601613106565b9150509250929050565b600067ffffffffffffffff82111561371957613718613510565b5b61372282612fc4565b9050602081019050919050565b600061374261373d846136fe565b613570565b90508281526020810184848401111561375e5761375d61350b565b5b6137698482856135bc565b509392505050565b600082601f8301126137865761378561327b565b5b813561379684826020860161372f565b91505092915050565b6000806000606084860312156137b8576137b7612eb9565b5b60006137c686828701613051565b93505060206137d786828701613106565b925050604084013567ffffffffffffffff8111156137f8576137f7612ebe565b5b61380486828701613771565b9150509250925092565b7f4e487b7100000000000000000000000000000000000000000000000000000000600052602260045260246000fd5b6000600282049050600182168061385557607f821691505b6020821081036138685761386761380e565b5b50919050565b7f4552433732313a20617070726f76616c20746f2063757272656e74206f776e6560008201527f7200000000000000000000000000000000000000000000000000000000000000602082015250565b60006138ca602183612f89565b91506138d58261386e565b604082019050919050565b600060208201905081810360008301526138f9816138bd565b9050919050565b7f4552433732313a20617070726f76652063616c6c6572206973206e6f7420746f60008201527f6b656e206f776e6572206f7220617070726f76656420666f7220616c6c000000602082015250565b600061395c603d83612f89565b915061396782613900565b604082019050919050565b6000602082019050818103600083015261398b8161394f565b9050919050565b7f4552433732313a2063616c6c6572206973206e6f7420746f6b656e206f776e6560008201527f72206f7220617070726f76656400000000000000000000000000000000000000602082015250565b60006139ee602d83612f89565b91506139f982613992565b604082019050919050565b60006020820190508181036000830152613a1d816139e1565b9050919050565b7f416363657373436f6e74726f6c3a2063616e206f6e6c792072656e6f756e636560008201527f20726f6c657320666f722073656c660000000000000000000000000000000000602082015250565b6000613a80602f83612f89565b9150613a8b82613a24565b604082019050919050565b60006020820190508181036000830152613aaf81613a73565b9050919050565b7f496e76616c696420616464726573730000000000000000000000000000000000600082015250565b6000613aec600f83612f89565b9150613af782613ab6565b602082019050919050565b60006020820190508181036000830152613b1b81613adf565b9050919050565b6000613b2e8385612f89565b9350613b3b8385846135bc565b613b4483612fc4565b840190509392505050565b600060e082019050613b64600083018b613395565b613b71602083018a613395565b613b7e60408301896130c5565b613b8b60608301886130c5565b613b9860808301876130c5565b613ba560a08301866130c5565b81810360c0830152613bb8818486613b22565b90509998505050505050505050565b7f4552433732313a20696e76616c696420746f6b656e2049440000000000000000600082015250565b6000613bfd601883612f89565b9150613c0882613bc7565b602082019050919050565b60006020820190508181036000830152613c2c81613bf0565b9050919050565b7f4552433732313a2061646472657373207a65726f206973206e6f74206120766160008201527f6c6964206f776e65720000000000000000000000000000000000000000000000602082015250565b6000613c8f602983612f89565b9150613c9a82613c33565b604082019050919050565b60006020820190508181036000830152613cbe81613c82565b9050919050565b7f4e487b7100000000000000000000000000000000000000000000000000000000600052603260045260246000fd5b7f4e487b7100000000000000000000000000000000000000000000000000000000600052601160045260246000fd5b6000613d2e82613030565b91507fffffffffffffffffffffffffffffffffffffffffffffffffffffffffffffffff8203613d6057613d5f613cf4565b5b600182019050919050565b7f4f776e61626c653a206e6577206f776e657220697320746865207a65726f206160008201527f6464726573730000000000000000000000000000000000000000000000000000602082015250565b6000613dc7602683612f89565b9150613dd282613d6b565b604082019050919050565b60006020820190508181036000830152613df681613dba565b9050919050565b7f4552433732313a207472616e736665722066726f6d20696e636f72726563742060008201527f6f776e6572000000000000000000000000000000000000000000000000000000602082015250565b6000613e59602583612f89565b9150613e6482613dfd565b604082019050919050565b60006020820190508181036000830152613e8881613e4c565b9050919050565b7f4552433732313a207472616e7366657220746f20746865207a65726f2061646460008201527f7265737300000000000000000000000000000000000000000000000000000000602082015250565b6000613eeb602483612f89565b9150613ef682613e8f565b604082019050919050565b60006020820190508181036000830152613f1a81613ede565b9050919050565b7f455243313136373a20637265617465206661696c656400000000000000000000600082015250565b6000613f57601683612f89565b9150613f6282613f21565b602082019050919050565b60006020820190508181036000830152613f8681613f4a565b9050919050565b7f4f776e61626c653a2063616c6c6572206973206e6f7420746865206f776e6572600082015250565b6000613fc3602083612f89565b9150613fce82613f8d565b602082019050919050565b60006020820190508181036000830152613ff281613fb6565b9050919050565b7f4552433732313a20617070726f766520746f2063616c6c657200000000000000600082015250565b600061402f601983612f89565b915061403a82613ff9565b602082019050919050565b6000602082019050818103600083015261405e81614022565b9050919050565b7f4552433732313a207472616e7366657220746f206e6f6e20455243373231526560008201527f63656976657220696d706c656d656e7465720000000000000000000000000000602082015250565b60006140c1603283612f89565b91506140cc82614065565b604082019050919050565b600060208201905081810360008301526140f0816140b4565b9050919050565b600081905092915050565b600061410d82612f7e565b61411781856140f7565b9350614127818560208601612f9a565b80840191505092915050565b600061413f8285614102565b915061414b8284614102565b91508190509392505050565b7f45524337323155524953746f726167653a2055524920736574206f66206e6f6e60008201527f6578697374656e7420746f6b656e000000000000000000000000000000000000602082015250565b60006141b3602e83612f89565b91506141be82614157565b604082019050919050565b600060208201905081810360008301526141e2816141a6565b9050919050565b60008190508160005260206000209050919050565b60006020601f8301049050919050565b600082821b905092915050565b60006008830261424b7fffffffffffffffffffffffffffffffffffffffffffffffffffffffffffffffff8261420e565b614255868361420e565b95508019841693508086168417925050509392505050565b6000819050919050565b600061429261428d61428884613030565b61426d565b613030565b9050919050565b6000819050919050565b6142ac83614277565b6142c06142b882614299565b84845461421b565b825550505050565b600090565b6142d56142c8565b6142e08184846142a3565b505050565b5b81811015614304576142f96000826142cd565b6001810190506142e6565b5050565b601f8211156143495761431a816141e9565b614323846141fe565b81016020851015614332578190505b61434661433e856141fe565b8301826142e5565b50505b505050565b600082821c905092915050565b600061436c6000198460080261434e565b1980831691505092915050565b6000614385838361435b565b9150826002028217905092915050565b61439e82612f7e565b67ffffffffffffffff8111156143b7576143b6613510565b5b6143c1825461383d565b6143cc828285614308565b600060209050601f8311600181146143ff57600084156143ed578287015190505b6143f78582614379565b86555061445f565b601f19841661440d866141e9565b60005b8281101561443557848901518255600182019150602085019450602081019050614410565b86831015614452578489015161444e601f89168261435b565b8355505b6001600288020188555050505b505050505050565b7f416363657373436f6e74726f6c3a206163636f756e7420000000000000000000600082015250565b600061449d6017836140f7565b91506144a882614467565b601782019050919050565b7f206973206d697373696e6720726f6c6520000000000000000000000000000000600082015250565b60006144e96011836140f7565b91506144f4826144b3565b601182019050919050565b600061450a82614490565b91506145168285614102565b9150614521826144dc565b915061452d8284614102565b91508190509392505050565b600081519050919050565b600082825260208201905092915050565b600061456082614539565b61456a8185614544565b935061457a818560208601612f9a565b61458381612fc4565b840191505092915050565b60006080820190506145a360008301876130c5565b6145b060208301866130c5565b6145bd6040830185613395565b81810360608301526145cf8184614555565b905095945050505050565b6000815190506145e981612eef565b92915050565b60006020828403121561460557614604612eb9565b5b6000614613848285016145da565b91505092915050565b600061462782613030565b915061463283613030565b925082820261464081613030565b9150828204841483151761465757614656613cf4565b5b5092915050565b600061466982613030565b915061467483613030565b925082820190508082111561468c5761468b613cf4565b5b92915050565b600061469d82613030565b9150600082036146b0576146af613cf4565b5b600182039050919050565b7f537472696e67733a20686578206c656e67746820696e73756666696369656e74600082015250565b60006146f1602083612f89565b91506146fc826146bb565b602082019050919050565b60006020820190508181036000830152614720816146e4565b9050919050565b7f4e487b7100000000000000000000000000000000000000000000000000000000600052601260045260246000fd5b7f4552433732313a206d696e7420746f20746865207a65726f2061646472657373600082015250565b600061478c602083612f89565b915061479782614756565b602082019050919050565b600060208201905081810360008301526147bb8161477f565b9050919050565b7f4552433732313a20746f6b656e20616c7265616479206d696e74656400000000600082015250565b60006147f8601c83612f89565b9150614803826147c2565b602082019050919050565b60006020820190508181036000830152614827816147eb565b905091905056fea2646970667358221220f48ba351555209cf3b685ec0cea4932409163c28617bfd9b758434ee7221b95764736f6c6343000811003360806040526000600860006101000a81548160ff021916908360028111156200002d576200002c62000209565b5b02179055503480156200003f57600080fd5b5062000060620000546200007660201b60201c565b6200007e60201b60201c565b620000706200014360201b60201c565b6200031c565b600033905090565b60008060029054906101000a900473ffffffffffffffffffffffffffffffffffffffff16905081600060026101000a81548173ffffffffffffffffffffffffffffffffffffffff021916908373ffffffffffffffffffffffffffffffffffffffff1602179055508173ffffffffffffffffffffffffffffffffffffffff168173ffffffffffffffffffffffffffffffffffffffff167f8be0079c531659141344cd1fd0a4f28419497f9722a3daafe3b4186f6b6457e060405160405180910390a35050565b600060019054906101000a900460ff161562000196576040517f08c379a00000000000000000000000000000000000000000000000000000000081526004016200018d90620002bf565b60405180910390fd5b60ff801660008054906101000a900460ff1660ff1614620002075760ff6000806101000a81548160ff021916908360ff1602179055507f7f26b83ff96e1f2b6a682f133852f6798a09c465da95921460cefb384740249860ff604051620001fe9190620002ff565b60405180910390a15b565b7f4e487b7100000000000000000000000000000000000000000000000000000000600052602160045260246000fd5b600082825260208201905092915050565b7f496e697469616c697a61626c653a20636f6e747261637420697320696e69746960008201527f616c697a696e6700000000000000000000000000000000000000000000000000602082015250565b6000620002a760278362000238565b9150620002b48262000249565b604082019050919050565b60006020820190508181036000830152620002da8162000298565b9050919050565b600060ff82169050919050565b620002f981620002e1565b82525050565b6000602082019050620003166000830184620002ee565b92915050565b612293806200032c6000396000f3fe608060405234801561001057600080fd5b50600436106100a95760003560e01c80638da5cb5b116100715780638da5cb5b14610152578063966dae0e14610170578063d67ee9c61461018e578063d7d1bbdb146101aa578063f2fde38b146101c6578063f60ca60d146101e2576100a9565b8063150b7a02146100ae578063200d2ed2146100de5780632d7788db146100fc578063715018a614610118578063804e44f314610122575b600080fd5b6100c860048036038101906100c3919061143d565b610205565b6040516100d591906114fb565b60405180910390f35b6100e6610219565b6040516100f3919061158d565b60405180910390f35b610116600480360381019061011191906115a8565b61022c565b005b610120610494565b005b61013c600480360381019061013791906115d5565b6104a8565b60405161014991906117f2565b60405180910390f35b61015a610658565b6040516101679190611823565b60405180910390f35b610178610681565b6040516101859190611823565b60405180910390f35b6101a860048036038101906101a3919061189e565b6106a7565b005b6101c460048036038101906101bf91906115a8565b6109dd565b005b6101e060048036038101906101db91906115d5565b610d97565b005b6101ea610e1a565b6040516101fc969594939291906119b9565b60405180910390f35b600063150b7a0260e01b9050949350505050565b600860009054906101000a900460ff1681565b806002600001548114610274576040517f08c379a000000000000000000000000000000000000000000000000000000000815260040161026b90611a6d565b60405180910390fd5b6000600281111561028857610287611516565b5b600860009054906101000a900460ff1660028111156102aa576102a9611516565b5b146102ea576040517f08c379a00000000000000000000000000000000000000000000000000000000081526004016102e190611ad9565b60405180910390fd5b600260040160009054906101000a900473ffffffffffffffffffffffffffffffffffffffff1673ffffffffffffffffffffffffffffffffffffffff163373ffffffffffffffffffffffffffffffffffffffff1614806103995750600260030160009054906101000a900473ffffffffffffffffffffffffffffffffffffffff1673ffffffffffffffffffffffffffffffffffffffff163373ffffffffffffffffffffffffffffffffffffffff16145b6103d8576040517f08c379a00000000000000000000000000000000000000000000000000000000081526004016103cf90611b45565b60405180910390fd5b600960003373ffffffffffffffffffffffffffffffffffffffff1673ffffffffffffffffffffffffffffffffffffffff16815260200190815260200160002060009054906101000a900460ff1615610465576040517f08c379a000000000000000000000000000000000000000000000000000000000815260040161045c90611bb1565b60405180910390fd5b6002600860006101000a81548160ff0219169083600281111561048b5761048a611516565b5b02179055505050565b61049c610f2c565b6104a66000610faa565b565b60606000600167ffffffffffffffff8111156104c7576104c6611312565b5b60405190808252806020026020018201604052801561050057816020015b6104ed61120c565b8152602001906001900390816104e55790505b5090506040518060a001604052806002600001548152602001600960008673ffffffffffffffffffffffffffffffffffffffff1673ffffffffffffffffffffffffffffffffffffffff16815260200190815260200160002060009054906101000a900460ff1615158152602001600860009054906101000a900460ff16600281111561058f5761058e611516565b5b81526020016002600101548152602001600260050180546105af90611c00565b80601f01602080910402602001604051908101604052809291908181526020018280546105db90611c00565b80156106285780601f106105fd57610100808354040283529160200191610628565b820191906000526020600020905b81548152906001019060200180831161060b57829003601f168201915b50505050508152508160008151811061064457610643611c31565b5b602002602001018190525080915050919050565b60008060029054906101000a900473ffffffffffffffffffffffffffffffffffffffff16905090565b600160009054906101000a900473ffffffffffffffffffffffffffffffffffffffff1681565b60008060019054906101000a900460ff161590508080156106d85750600160008054906101000a900460ff1660ff16105b8061070557506106e73061106f565b1580156107045750600160008054906101000a900460ff1660ff16145b5b610744576040517f08c379a000000000000000000000000000000000000000000000000000000000815260040161073b90611cd2565b60405180910390fd5b60016000806101000a81548160ff021916908360ff1602179055508015610781576001600060016101000a81548160ff0219169083151502179055505b6040518060c001604052808a81526020018981526020018873ffffffffffffffffffffffffffffffffffffffff1681526020018773ffffffffffffffffffffffffffffffffffffffff1681526020018673ffffffffffffffffffffffffffffffffffffffff16815260200184848080601f016020809104026020016040519081016040528093929190818152602001838380828437600081840152601f19601f820116905080830192505050505050508152506002600082015181600001556020820151816001015560408201518160020160006101000a81548173ffffffffffffffffffffffffffffffffffffffff021916908373ffffffffffffffffffffffffffffffffffffffff16021790555060608201518160030160006101000a81548173ffffffffffffffffffffffffffffffffffffffff021916908373ffffffffffffffffffffffffffffffffffffffff16021790555060808201518160040160006101000a81548173ffffffffffffffffffffffffffffffffffffffff021916908373ffffffffffffffffffffffffffffffffffffffff16021790555060a08201518160050190816109349190611e9e565b5090505083600160006101000a81548173ffffffffffffffffffffffffffffffffffffffff021916908373ffffffffffffffffffffffffffffffffffffffff16021790555080156109d25760008060016101000a81548160ff0219169083151502179055507f7f26b83ff96e1f2b6a682f133852f6798a09c465da95921460cefb384740249860016040516109c99190611fb8565b60405180910390a15b505050505050505050565b806002600001548114610a25576040517f08c379a0000000000000000000000000000000000000000000000000000000008152600401610a1c90611a6d565b60405180910390fd5b60006002811115610a3957610a38611516565b5b600860009054906101000a900460ff166002811115610a5b57610a5a611516565b5b14610a9b576040517f08c379a0000000000000000000000000000000000000000000000000000000008152600401610a9290611ad9565b60405180910390fd5b600260040160009054906101000a900473ffffffffffffffffffffffffffffffffffffffff1673ffffffffffffffffffffffffffffffffffffffff163373ffffffffffffffffffffffffffffffffffffffff161480610b4a5750600260030160009054906101000a900473ffffffffffffffffffffffffffffffffffffffff1673ffffffffffffffffffffffffffffffffffffffff163373ffffffffffffffffffffffffffffffffffffffff16145b610b89576040517f08c379a0000000000000000000000000000000000000000000000000000000008152600401610b8090611b45565b60405180910390fd5b600960003373ffffffffffffffffffffffffffffffffffffffff1673ffffffffffffffffffffffffffffffffffffffff16815260200190815260200160002060009054906101000a900460ff1615610c16576040517f08c379a0000000000000000000000000000000000000000000000000000000008152600401610c0d90611bb1565b60405180910390fd5b6001600960003373ffffffffffffffffffffffffffffffffffffffff1673ffffffffffffffffffffffffffffffffffffffff16815260200190815260200160002060006101000a81548160ff02191690831515021790555060096000600260040160009054906101000a900473ffffffffffffffffffffffffffffffffffffffff1673ffffffffffffffffffffffffffffffffffffffff1673ffffffffffffffffffffffffffffffffffffffff16815260200190815260200160002060009054906101000a900460ff168015610d5a575060096000600260030160009054906101000a900473ffffffffffffffffffffffffffffffffffffffff1673ffffffffffffffffffffffffffffffffffffffff1673ffffffffffffffffffffffffffffffffffffffff16815260200190815260200160002060009054906101000a900460ff165b15610d93576001600860006101000a81548160ff02191690836002811115610d8557610d84611516565b5b0217905550610d92611092565b5b5050565b610d9f610f2c565b600073ffffffffffffffffffffffffffffffffffffffff168173ffffffffffffffffffffffffffffffffffffffff1603610e0e576040517f08c379a0000000000000000000000000000000000000000000000000000000008152600401610e0590612045565b60405180910390fd5b610e1781610faa565b50565b60028060000154908060010154908060020160009054906101000a900473ffffffffffffffffffffffffffffffffffffffff16908060030160009054906101000a900473ffffffffffffffffffffffffffffffffffffffff16908060040160009054906101000a900473ffffffffffffffffffffffffffffffffffffffff1690806005018054610ea990611c00565b80601f0160208091040260200160405190810160405280929190818152602001828054610ed590611c00565b8015610f225780601f10610ef757610100808354040283529160200191610f22565b820191906000526020600020905b815481529060010190602001808311610f0557829003601f168201915b5050505050905086565b610f34611204565b73ffffffffffffffffffffffffffffffffffffffff16610f52610658565b73ffffffffffffffffffffffffffffffffffffffff1614610fa8576040517f08c379a0000000000000000000000000000000000000000000000000000000008152600401610f9f906120b1565b60405180910390fd5b565b60008060029054906101000a900473ffffffffffffffffffffffffffffffffffffffff16905081600060026101000a81548173ffffffffffffffffffffffffffffffffffffffff021916908373ffffffffffffffffffffffffffffffffffffffff1602179055508173ffffffffffffffffffffffffffffffffffffffff168173ffffffffffffffffffffffffffffffffffffffff167f8be0079c531659141344cd1fd0a4f28419497f9722a3daafe3b4186f6b6457e060405160405180910390a35050565b6000808273ffffffffffffffffffffffffffffffffffffffff163b119050919050565b60006002600001543060026005016040516024016110b293929190612155565b6040516020818303038152906040527ff626cf2c000000000000000000000000000000000000000000000000000000007bffffffffffffffffffffffffffffffffffffffffffffffffffffffff19166020820180517bffffffffffffffffffffffffffffffffffffffffffffffffffffffff838183161783525050505090506000600160009054906101000a900473ffffffffffffffffffffffffffffffffffffffff1673ffffffffffffffffffffffffffffffffffffffff168260405161117a91906121da565b6000604051808303816000865af19150503d80600081146111b7576040519150601f19603f3d011682016040523d82523d6000602084013e6111bc565b606091505b5050905080611200576040517f08c379a00000000000000000000000000000000000000000000000000000000081526004016111f79061223d565b60405180910390fd5b5050565b600033905090565b6040518060a00160405280600081526020016000151581526020016000600281111561123b5761123a611516565b5b815260200160008152602001606081525090565b6000604051905090565b600080fd5b600080fd5b600073ffffffffffffffffffffffffffffffffffffffff82169050919050565b600061128e82611263565b9050919050565b61129e81611283565b81146112a957600080fd5b50565b6000813590506112bb81611295565b92915050565b6000819050919050565b6112d4816112c1565b81146112df57600080fd5b50565b6000813590506112f1816112cb565b92915050565b600080fd5b600080fd5b6000601f19601f8301169050919050565b7f4e487b7100000000000000000000000000000000000000000000000000000000600052604160045260246000fd5b61134a82611301565b810181811067ffffffffffffffff8211171561136957611368611312565b5b80604052505050565b600061137c61124f565b90506113888282611341565b919050565b600067ffffffffffffffff8211156113a8576113a7611312565b5b6113b182611301565b9050602081019050919050565b82818337600083830152505050565b60006113e06113db8461138d565b611372565b9050828152602081018484840111156113fc576113fb6112fc565b5b6114078482856113be565b509392505050565b600082601f830112611424576114236112f7565b5b81356114348482602086016113cd565b91505092915050565b6000806000806080858703121561145757611456611259565b5b6000611465878288016112ac565b9450506020611476878288016112ac565b9350506040611487878288016112e2565b925050606085013567ffffffffffffffff8111156114a8576114a761125e565b5b6114b48782880161140f565b91505092959194509250565b60007fffffffff0000000000000000000000000000000000000000000000000000000082169050919050565b6114f5816114c0565b82525050565b600060208201905061151060008301846114ec565b92915050565b7f4e487b7100000000000000000000000000000000000000000000000000000000600052602160045260246000fd5b6003811061155657611555611516565b5b50565b600081905061156782611545565b919050565b600061157782611559565b9050919050565b6115878161156c565b82525050565b60006020820190506115a2600083018461157e565b92915050565b6000602082840312156115be576115bd611259565b5b60006115cc848285016112e2565b91505092915050565b6000602082840312156115eb576115ea611259565b5b60006115f9848285016112ac565b91505092915050565b600081519050919050565b600082825260208201905092915050565b6000819050602082019050919050565b611637816112c1565b82525050565b60008115159050919050565b6116528161163d565b82525050565b6116618161156c565b82525050565b600081519050919050565b600082825260208201905092915050565b60005b838110156116a1578082015181840152602081019050611686565b60008484015250505050565b60006116b882611667565b6116c28185611672565b93506116d2818560208601611683565b6116db81611301565b840191505092915050565b600060a0830160008301516116fe600086018261162e565b5060208301516117116020860182611649565b5060408301516117246040860182611658565b506060830151611737606086018261162e565b506080830151848203608086015261174f82826116ad565b9150508091505092915050565b600061176883836116e6565b905092915050565b6000602082019050919050565b600061178882611602565b611792818561160d565b9350836020820285016117a48561161e565b8060005b858110156117e057848403895281516117c1858261175c565b94506117cc83611770565b925060208a019950506001810190506117a8565b50829750879550505050505092915050565b6000602082019050818103600083015261180c818461177d565b905092915050565b61181d81611283565b82525050565b60006020820190506118386000830184611814565b92915050565b600080fd5b600080fd5b60008083601f84011261185e5761185d6112f7565b5b8235905067ffffffffffffffff81111561187b5761187a61183e565b5b60208301915083600182028301111561189757611896611843565b5b9250929050565b60008060008060008060008060e0898b0312156118be576118bd611259565b5b60006118cc8b828c016112e2565b98505060206118dd8b828c016112e2565b97505060406118ee8b828c016112ac565b96505060606118ff8b828c016112ac565b95505060806119108b828c016112ac565b94505060a06119218b828c016112ac565b93505060c089013567ffffffffffffffff8111156119425761194161125e565b5b61194e8b828c01611848565b92509250509295985092959890939650565b611969816112c1565b82525050565b600082825260208201905092915050565b600061198b82611667565b611995818561196f565b93506119a5818560208601611683565b6119ae81611301565b840191505092915050565b600060c0820190506119ce6000830189611960565b6119db6020830188611960565b6119e86040830187611814565b6119f56060830186611814565b611a026080830185611814565b81810360a0830152611a148184611980565b9050979650505050505050565b7f496e76616c69642070726f6a6563742069640000000000000000000000000000600082015250565b6000611a5760128361196f565b9150611a6282611a21565b602082019050919050565b60006020820190508181036000830152611a8681611a4a565b9050919050565b7f50726f6a656374206973206e6f742070656e64696e6700000000000000000000600082015250565b6000611ac360168361196f565b9150611ace82611a8d565b602082019050919050565b60006020820190508181036000830152611af281611ab6565b9050919050565b7f556e617574686f72697a65640000000000000000000000000000000000000000600082015250565b6000611b2f600c8361196f565b9150611b3a82611af9565b602082019050919050565b60006020820190508181036000830152611b5e81611b22565b9050919050565b7f416c726561647920617070726f76656400000000000000000000000000000000600082015250565b6000611b9b60108361196f565b9150611ba682611b65565b602082019050919050565b60006020820190508181036000830152611bca81611b8e565b9050919050565b7f4e487b7100000000000000000000000000000000000000000000000000000000600052602260045260246000fd5b60006002820490506001821680611c1857607f821691505b602082108103611c2b57611c2a611bd1565b5b50919050565b7f4e487b7100000000000000000000000000000000000000000000000000000000600052603260045260246000fd5b7f496e697469616c697a61626c653a20636f6e747261637420697320616c72656160008201527f647920696e697469616c697a6564000000000000000000000000000000000000602082015250565b6000611cbc602e8361196f565b9150611cc782611c60565b604082019050919050565b60006020820190508181036000830152611ceb81611caf565b9050919050565b60008190508160005260206000209050919050565b60006020601f8301049050919050565b600082821b905092915050565b600060088302611d547fffffffffffffffffffffffffffffffffffffffffffffffffffffffffffffffff82611d17565b611d5e8683611d17565b95508019841693508086168417925050509392505050565b6000819050919050565b6000611d9b611d96611d91846112c1565b611d76565b6112c1565b9050919050565b6000819050919050565b611db583611d80565b611dc9611dc182611da2565b848454611d24565b825550505050565b600090565b611dde611dd1565b611de9818484611dac565b505050565b5b81811015611e0d57611e02600082611dd6565b600181019050611def565b5050565b601f821115611e5257611e2381611cf2565b611e2c84611d07565b81016020851015611e3b578190505b611e4f611e4785611d07565b830182611dee565b50505b505050565b600082821c905092915050565b6000611e7560001984600802611e57565b1980831691505092915050565b6000611e8e8383611e64565b9150826002028217905092915050565b611ea782611667565b67ffffffffffffffff811115611ec057611ebf611312565b5b611eca8254611c00565b611ed5828285611e11565b600060209050601f831160018114611f085760008415611ef6578287015190505b611f008582611e82565b865550611f68565b601f198416611f1686611cf2565b60005b82811015611f3e57848901518255600182019150602085019450602081019050611f19565b86831015611f5b5784890151611f57601f891682611e64565b8355505b6001600288020188555050505b505050505050565b6000819050919050565b600060ff82169050919050565b6000611fa2611f9d611f9884611f70565b611d76565b611f7a565b9050919050565b611fb281611f87565b82525050565b6000602082019050611fcd6000830184611fa9565b92915050565b7f4f776e61626c653a206e6577206f776e657220697320746865207a65726f206160008201527f6464726573730000000000000000000000000000000000000000000000000000602082015250565b600061202f60268361196f565b915061203a82611fd3565b604082019050919050565b6000602082019050818103600083015261205e81612022565b9050919050565b7f4f776e61626c653a2063616c6c6572206973206e6f7420746865206f776e6572600082015250565b600061209b60208361196f565b91506120a682612065565b602082019050919050565b600060208201905081810360008301526120ca8161208e565b9050919050565b600081546120de81611c00565b6120e8818661196f565b9450600182166000811461210357600181146121195761214c565b60ff19831686528115156020028601935061214c565b61212285611cf2565b60005b8381101561214457815481890152600182019150602081019050612125565b808801955050505b50505092915050565b600060608201905061216a6000830186611960565b6121776020830185611814565b818103604083015261218981846120d1565b9050949350505050565b600081519050919050565b600081905092915050565b60006121b482612193565b6121be818561219e565b93506121ce818560208601611683565b80840191505092915050565b60006121e682846121a9565b915081905092915050565b7f6d696e74696e67206661696c6564000000000000000000000000000000000000600082015250565b6000612227600e8361196f565b9150612232826121f1565b602082019050919050565b600060208201905081810360008301526122568161221a565b905091905056fea2646970667358221220819e2b395f5017b9b79cdee14c03032b54f827171e585655512d68baddaf580064736f6c63430008110033",
  "immutableReferences": {
    "4216": [
      {
        "length": 32,
        "start": 2656
      },
      {
        "length": 32,
        "start": 3202
      }
    ]
  },
  "source": "// SPDX-License-Identifier: MIT\npragma solidity ^0.8.17;\n\nimport \"@openzeppelin/contracts/token/ERC721/ERC721.sol\";\nimport \"@openzeppelin/contracts/token/ERC721/extensions/ERC721URIStorage.sol\";\nimport \"@openzeppelin/contracts/access/AccessControl.sol\";\nimport \"@openzeppelin/contracts/access/Ownable.sol\";\nimport \"@openzeppelin/contracts/proxy/Clones.sol\";\nimport \"@openzeppelin/contracts/utils/Counters.sol\";\nimport \"./StorageContract.sol\";\n\ncontract FactoryContract is ERC721, ERC721URIStorage, AccessControl, Ownable {\n    using Counters for Counters.Counter;\n\n    Counters.Counter private _projectIdCounter;\n    address public immutable implementation;\n    address[] public projects;\n    mapping(uint256 => address[3]) projectMembers;\n\n    bytes32 public constant MINTER_ROLE = keccak256(\"MINTER_ROLE\");\n\n    constructor() ERC721(\"SynthWork\", \"SNWK\") {\n        implementation = address(new StorageContract());\n        _setupRole(DEFAULT_ADMIN_ROLE, msg.sender);\n        _setupRole(MINTER_ROLE, msg.sender);\n    }\n\n    function createProject(\n        uint256 amount,\n        address seniorAddress,\n        address clientAddress,\n        string calldata ipfsHash\n    )   external {\n        require (seniorAddress != address(0), \"Invalid address\");\n        require (clientAddress != address(0), \"Invalid address\");\n        require (seniorAddress != clientAddress, \"Invalid address\");\n\n        uint256 projectId = _projectIdCounter.current();\n        address projectAddress = Clones.clone(implementation);\n        StorageContract(projectAddress).initialize(\n            projectId,\n            amount,\n            msg.sender,\n            seniorAddress,\n            clientAddress,\n            address(this),\n            ipfsHash\n        );\n        projects.push(projectAddress);\n        projectMembers[projectId] = [msg.sender, seniorAddress, clientAddress];\n        _projectIdCounter.increment();\n        _grantRole(MINTER_ROLE, projectAddress);\n    }\n\n    function safeMint(uint256 tokenId, address to, string memory uri) public onlyRole(MINTER_ROLE) {\n        _safeMint(to, tokenId);\n        _setTokenURI(tokenId, uri);\n    }\n\n    function _burn(uint256 tokenId) internal override(ERC721, ERC721URIStorage) {\n        super._burn(tokenId);\n    }\n\n    function tokenURI(uint256 tokenId)\n        public\n        view\n        override(ERC721, ERC721URIStorage)\n        returns (string memory)\n    {\n        return super.tokenURI(tokenId);\n    }\n\n    function supportsInterface(bytes4 interfaceId)\n        public\n        view\n        override(ERC721, ERC721URIStorage, AccessControl)\n        returns (bool)\n    {\n        return super.supportsInterface(interfaceId);\n    }\n\n    function getProjectsOfUser(address _user)\n        public\n        view\n        returns (address[] memory)\n    {\n        uint256 i = 0;\n        for (uint256 j = 0; j < projects.length; j++) {\n            if (projectMembers[j][0] == _user\n                || projectMembers[j][1] == _user\n                || projectMembers[j][2] == _user) {\n                i++;\n            }\n        }\n        address[] memory userProjects = new address[](i);\n        uint256 k = 0;\n        for (uint256 j = 0; j < projects.length; j++) {\n            if (projectMembers[j][0] == _user\n                || projectMembers[j][1] == _user\n                || projectMembers[j][2] == _user) {\n                userProjects[k] = projects[j];\n                k++;\n            }\n        }\n        return userProjects;\n    }\n}\n",
  "sourcePath": "C:\\Users\\ze_fe\\OneDrive\\Desktop\\ethglobal\\ethsg2023\\ethsg2023\\apps\\blockchain\\contracts\\FactoryContract.sol",
  "compiler": {
    "name": "solc",
    "version": "0.8.17+commit.8df45f5f.Emscripten.clang"
  },
  "schemaVersion": "3.4.16",
  "updatedAt": "2023-09-11T08:32:31.906Z",
  "networkType": "ethereum",
  "devdoc": {
    "kind": "dev",
    "methods": {
      "approve(address,uint256)": {
        "details": "See {IERC721-approve}."
      },
      "balanceOf(address)": {
        "details": "See {IERC721-balanceOf}."
      },
      "getApproved(uint256)": {
        "details": "See {IERC721-getApproved}."
      },
      "getRoleAdmin(bytes32)": {
        "details": "Returns the admin role that controls `role`. See {grantRole} and {revokeRole}. To change a role's admin, use {_setRoleAdmin}."
      },
      "grantRole(bytes32,address)": {
        "details": "Grants `role` to `account`. If `account` had not been already granted `role`, emits a {RoleGranted} event. Requirements: - the caller must have ``role``'s admin role. May emit a {RoleGranted} event."
      },
      "hasRole(bytes32,address)": {
        "details": "Returns `true` if `account` has been granted `role`."
      },
      "isApprovedForAll(address,address)": {
        "details": "See {IERC721-isApprovedForAll}."
      },
      "name()": {
        "details": "See {IERC721Metadata-name}."
      },
      "owner()": {
        "details": "Returns the address of the current owner."
      },
      "ownerOf(uint256)": {
        "details": "See {IERC721-ownerOf}."
      },
      "renounceOwnership()": {
        "details": "Leaves the contract without owner. It will not be possible to call `onlyOwner` functions. Can only be called by the current owner. NOTE: Renouncing ownership will leave the contract without an owner, thereby disabling any functionality that is only available to the owner."
      },
      "renounceRole(bytes32,address)": {
        "details": "Revokes `role` from the calling account. Roles are often managed via {grantRole} and {revokeRole}: this function's purpose is to provide a mechanism for accounts to lose their privileges if they are compromised (such as when a trusted device is misplaced). If the calling account had been revoked `role`, emits a {RoleRevoked} event. Requirements: - the caller must be `account`. May emit a {RoleRevoked} event."
      },
      "revokeRole(bytes32,address)": {
        "details": "Revokes `role` from `account`. If `account` had been granted `role`, emits a {RoleRevoked} event. Requirements: - the caller must have ``role``'s admin role. May emit a {RoleRevoked} event."
      },
      "safeTransferFrom(address,address,uint256)": {
        "details": "See {IERC721-safeTransferFrom}."
      },
      "safeTransferFrom(address,address,uint256,bytes)": {
        "details": "See {IERC721-safeTransferFrom}."
      },
      "setApprovalForAll(address,bool)": {
        "details": "See {IERC721-setApprovalForAll}."
      },
      "symbol()": {
        "details": "See {IERC721Metadata-symbol}."
      },
      "transferFrom(address,address,uint256)": {
        "details": "See {IERC721-transferFrom}."
      },
      "transferOwnership(address)": {
        "details": "Transfers ownership of the contract to a new account (`newOwner`). Can only be called by the current owner."
      }
    },
    "version": 1
  },
  "userdoc": {
    "kind": "user",
    "methods": {},
    "version": 1
  }
}